S01100006163696D5F64656D6F2E7372656375
S113000000400020E9240000A3130000471500006D
S1130010731700003B1A00006B1A00000000000078
S1130020000000000000000000000000031F0000AA
S1130030E52400000000000027250000332500000F
S113004055250000552500005525000055250000C4
S113005055250000552500005525000055250000B4
S113006055250000552500005525000055250000A4
S11300705525000055250000552500005525000094
S11300805525000055250000552500005525000084
S11300905525000055250000552500005525000074
S11300A05525000055250000552500005525000064
S11300B05525000055250000552500005525000054
S11300C05525000055250000552500005525000044
S11300D05525000055250000552500005525000034
S11300E05525000055250000552500005525000024
S11300F05525000055250000552500005525000014
S1130100ED0A000055250000552500005525000086
S113011055250000552500005525000055250000F3
S113012055250000552500005525000055250000E3
S113013055250000552500005525000055250000D3
S113014055250000552500005525000055250000C3
S113015055250000552500005525000055250000B3
S113016055250000552500005525000055250000A3
S11301705525000055250000552500005525000093
S113018055250000552500004904000055250000B0
S11301905525000055250000552500005525000073
S11301A05525000055250000E10A000055250000F2
S11301B05525000055250000552500005525000053
S11301C05525000055250000552500005525000043
S11301D05525000055250000552500005525000033
S11301E05525000055250000552500005525000023
S11303F0552500005525000055250000FFFFFFFF8F
S1130400FFFFFFFFFFFFFFFFFFFFFFFFFEFFFFFFF9
S113041080B572B600F0DAFBDFF848070068DFF851
S11304204817084050F48070DFF838170860DFF888
S11304303C07006850F48000DFF83017086000F0D3
S113044043FC62B6FEE7000010B52DED068B9FED70
S1130450699B9FED68AB00249FED681BB0EE418A59
S1130460F0EE618ADFF80807006800F059FE002208
S1130470DFF8003700F06AFEDFF8FC26DFF8FC3610
S113048000F090FF41EC100BB0EE481AF0EE681A41
S113049001F05AF8B0EE409AF0EE609A9FED591BC5
S11304A0B0EE490AF0EE690A01F04EF8B0EE40AA47
S11304B0F0EE60AA51EC190BDFF8C426DFF8C4365D
S11304C000F044FE41EC100B01F01CF953EC102B2E
S11304D00020DFF8B41601F04DF901F0BFF9040073
S11304E0DFF89C06DFF89C1653EC1A2B01F0DCF9BC
S11304F041EC100B01F098FA53EC102BDFF88C064A
S1130500DFF88C1600F04EFF00225FF0804300F00D
S11305101DFEDFF88026C2E90001B0EE4A0AF0EEC3
S11305206A0A01F081FA53EC102BDFF86006DFF859
S1130530601600F037FF00225FF0804300F006FEF3
S1130540DFF85426C2E900010020DFF85016DFF876
S113055044265368126801F0A7F9DFF83C26536873
S1130560126801F0A1F900225FF0804300F0EEFD73
S1130570DFF82C26C2E90001DFF8180690ED000B25
S113058000F0C6FADFF80C0680ED000BDFF8080671
S113059090ED000B00F0BCFADFF8FC0580ED000BD9
S11305A0DFF8FC0590ED000B00F0B2FADFF8F0057F
S11305B080ED000BDFF8E8054168006800220023A5
S11305C001F03CFA05D2DFF8D80500220023C0E987
S11305D00023012C1AD0C0F04C82032C00F0D280EE
S11305E072D3052C00F08A81C0F02A81062C00F019
S11305F0E3813EE20000000000000000282D445486
S1130600FB21194070732D3852C1F03FDFF890057B
S1130610D0E900230020DFF88C1500F0C3FE41EC84
S1130620100B01F06FF853EC102B0020DFF8741559
S113063001F03AF901F012F9DFF86C150860DFF8FF
S11306406005D0E90023DFF84C054168006801F03B
S113065091F80022DFF84C3500F0A4FE41EC100BB9
S113066001F050F853EC102B0020DFF8381501F09E
S11306701BF901F0F3F8DFF830154860DFF82005C6
S1130680D0E90023DFF80C054168006801F072F836
S1130690DFF804255368126801F06CF80022DFF8D3
S11306A0043500F07FFE41EC100B01F02BF853EC05
S11306B0102B0020DFF8EC1401F0F6F801F0CEF86E
S11306C0DFF8E4148860D4E1DFF8D404D0E900232F
S11306D0DFF8C4044168006801F04CF80022DFF838
S11306E0C43400F05FFE41EC100B01F00BF853EC46
S11306F0102B0020DFF8AC1401F0D6F801F0AEF8AE
S1130700DFF8A4140860DFF89804D0E9002300207F
S1130710DFF8901400F046FE41EC100B00F0F2FFFD
S113072053EC102B0020DFF87C1401F0BDF801F02D
S113073095F8DFF874144860DFF86404D0E9002306
S1130740DFF850044168006801F014F8DFF8482429
S11307505368126801F00EF80022DFF8483400F004
S113076021FE41EC100B00F0CDFF53EC102B0020C8
S1130770DFF8301401F098F801F070F8DFF828146D
S1130780886076E1DFF81804D0E90023DFF8040478
S11307904168006800F0EEFFDFF8FC23536812683C
S11307A000F0E8FF0022DFF8FC3300F0FBFD41EC31
S11307B0100B00F0A7FF53EC102B0020DFF8E4131C
S11307C001F072F801F04AF8DFF8DC130860DFF892
S11307D0D003D0E900230020DFF8C81300F0E2FDC5
S11307E041EC100B00F08EFF53EC102B0020DFF8CF
S11307F0B41301F059F801F031F8DFF8AC13486094
S1130800DFF89C03D0E90023DFF88803416800681F
S113081000F0B0FF0022DFF88C3300F0C3FD41ECA0
S1130820100B00F06FFF53EC102B0020DFF8741353
S113083001F03AF801F012F8DFF86C13886018E15F
S1130840DFF85C03D0E90023DFF84803416800685F
S113085000F090FFDFF840235368126800F08AFF2D
S11308600022DFF8403300F09DFD41EC100B00F056
S113087049FF53EC102B0020DFF8281301F014F883
S113088000F0ECFFDFF820130860DFF81403D0E970
S11308900023DFF804034168006800F06BFF0022C6
S11308A0DFF8003300F07EFD41EC100B00F02AFF6E
S11308B053EC102B0020DFF8EC1200F0F5FF00F0F1
S11308C0CDFFDFF8E4124860DFF8D402D0E900235A
S11308D00020DFF8D01200F065FD41EC100B00F0B1
S11308E011FF53EC102B0020DFF8B81200F0DCFFEE
S11308F000F0B4FFDFF8B0128860BAE0DFF8A002BD
S1130900D0E90023DFF88C024168006800F032FF70
S11309100022DFF8903200F045FD41EC100B00F0AE
S1130920F1FE53EC102B0020DFF8781200F0BCFF2E
S113093000F094FFDFF870120860DFF86402D0E979
S11309400023DFF850024168006800F013FFDFF86D
S113095048225368126800F00DFF0022DFF8443289
S113096000F020FD41EC100B00F0CCFE53EC102BFA
S11309700020DFF8301200F097FF00F06FFFDFF87F
S113098028124860DFF81802D0E900230020DFF8BD
S1130990141200F007FD41EC100B00F0B3FE53EC11
S11309A0102B0020DFF8FC1100F07EFF00F056FF52
S11309B0DFF8F41188605CE0DFF8E401D0E900239B
S11309C00020DFF8E01100F0EDFC41EC100B00F02A
S11309D099FE53EC102B0020DFF8C81100F064FFDF
S11309E000F03CFFDFF8C0110860DFF8B401D0E983
S11309F00023DFF8A0014168006800F0BBFEDFF8C7
S1130A0098215368126800F0B5FE0022DFF8943193
S1130A1000F0C8FC41EC100B00F074FE53EC102BFA
S1130A200020DFF8801100F03FFF00F017FFDFF82F
S1130A3078114860DFF86801D0E90023DFF8580135
S1130A404168006800F096FE0022DFF8583100F09B
S1130A50A9FC41EC100B00F055FE53EC102B0020C8
S1130A60DFF8401100F020FF00F0F8FEDFF8381145
S1130A7088603F480068401C3D4908603C48006865
S1130A80B0F57A7F02DD002039490860DFF81801EB
S1130A900068DFF818110860DFF80C014068DFF81F
S1130AA00C114860DFF800018068DFF800118860ED
S1130AB0DFF8FC00008810F4404050F48050DFF868
S1130AC0F0100880DFF8EC0000884FF6F071084061
S1130AD050F00100DFF8DC100880BDEC068B10BD7F
S1130AE05FF48000DFF8D01008607047DFF8CC00B6
S1130AF0006850F00100DFF8C41008600120DFF83E
S1130B00C01008605FF48000DFF8B8100860704718
S1130B1080B52DED048BB0EE408AF0EE608A53EC84
S1130B20182B0020DFF8A01000F03CFC41EC190B5E
S1130B30B0EE490AF0EE690A00F0E4FDB0EE409A26
S1130B40F0EE609A51EC190B0022DFF87C3000F0D3
S1130B50FDFA41EC190BB0EE490AF0EE690ABDEC5E
S1130B60048B01BD58A00440FFF8FFFE54F00F4071
S1130B7020C0FF1F00408F40723855297A6A3F40D9
S1130B8070732D3852C1F03F0000F03F5C8FC2F506
S1130B90285CEF3F08C0FF1F10C0FF1F0000E03FAC
S1130BA018C0FF1F0011B24024C0FF1F30C0FF1F38
S1130BB0243003408831034044F00F400C7103405B
S1130BC0CCF00F404CF00F40006AF8402748006812
S1130BD050F40070254908602448006850F480608F
S1130BE0224908602148006850F400601F490860E9
S1130BF01E48006850F480501C4908601B48006877
S1130C0050F400501949086019480068194908400F
S1130C1050F48070164908601748006850F40020AA
S1130C20154908605FF400201449086014480068FE
S1130C301049084050F48070114908600E4800685B
S1130C4050F004000C49086004200C4908600D4869
S1130C5000680849084050F480700A490860064852
S1130C60006850F48060044908607047388004408C
S1130C704CA00440FFF8FFFE54F00F4048F00F4032
S1130C8008A0044028A00440012110F01F02914054
S1130C90DFF8B42340B2430942F82310704710B47C
S1130CA040B2002809D50A01DFF8A03340B210F0A1
S1130CB00F04E31803F8042C04E00A01DFF890336E
S1130CC040B2C25410BC704780B500F001F801BDB9
S1130CD080B5DFF88003006850F08070DFF874138B
S1130CE00860DFF87003006850F00070DFF86413E8
S1130CF00860DFF86003006850F08060DFF8541388
S1130D000860DFF85403008850F48060DFF848136B
S1130D100880DFF84803008850F48060DFF83C1353
S1130D200880DFF83C03008850F48060DFF830135B
S1130D3008804EF6EF50DFF82C1308804EF6EF5083
S1130D40DFF8241308804EF6EF50DFF820130880F4
S1130D500020DFF81C1308800020DFF81813088037
S1130D600020DFF81413088041F21020DFF80C1380
S1130D70088041F21020DFF80813088041F21020A7
S1130D80DFF8001308804FF2F860DFF8FC120880E7
S1130D904FF2F860DFF8F41208804FF2F860DFF8E1
S1130DA0F012088040F60810DFF8E812088040F6D8
S1130DB00810DFF8E412088040F60810DFF8DC12AF
S1130DC008800020DFF8D81208800020DFF8D41251
S1130DD008800020DFF8D01208800020DFF8CC1251
S1130DE008800020DFF8C81208800020DFF8C41251
S1130DF008804FF4B970DFF8C01208804FF4B9705E
S1130E00DFF8B81208804FF4B970DFF8B412088024
S1130E104FF4B970DFF8AC1208804FF4B970DFF802
S1130E20A81208804FF4B970DFF8A01208804FF4BC
S1130E30B970DFF89C1208804FF4B970DFF894128F
S1130E400880DFF8940200884FF6F0710840DFF85C
S1130E5088120880DFF8840200884FF6F071084099
S1130E60DFF878120880DFF8780200884FF6F07116
S1130E700840DFF86C120880DFF85C0200884FF647
S1130E800F710840DFF850120880DFF85002008824
S1130E904FF60F710840DFF844120880DFF8400273
S1130EA000884FF60F710840DFF834120880DFF82D
S1130EB0340200884FF6FC71084050F00200894962
S1130EC00880894800884FF6FC71084050F0020001
S1130ED0854908808348008850F0040081490880CF
S1130EE08148008850F004007F4908807D480088CC
S1130EF04FF6FF41084050F400707A4908807A4860
S1130F0000884FF6FF41084050F40070764908808D
S1130F10764800880005000D50F48050734908801D
S1130F20724800884FF2FF010840704908807048F9
S1130F30008810F47F4050F010006D4908806D481F
S1130F40008810F47F4050F005006A490880694821
S1130F5000884FF6FF01084050F4A06065490880FE
S1130F60654800884FF2FF01084050F4E060624990
S1130F700880614800884FF60F71084050F07000F7
S1130F805D490880344800884FF68F71084050F05E
S1130F90300031490880594800884FF60F710840E5
S1130FA050F0700055490880544800884FF6F0719D
S1130FB0084050F0070051490880504800884FF21B
S1130FC0FF01084050F4E0604C4908804C48006838
S1130FD04C49084050F4C060494908604A480068D8
S1130FE04849084050F4C0604749086047480068D1
S1130FF04449084050F4C0604449086044480068CB
S11310004049084050F4C0604149086041480068C4
S11310103C49084050F4A0603E4908603E480068DE
S11310203849084050F4A0603B4908603B480088B8
S113103050F48050394908805220FFF725FE0321DF
S11310405220FFF72CFE01BD00E100E018ED00E0A6
S113105000E400E03480044006300340663003407E
S1131060C63003400230034062300340C2300340C4
S11310700A3003406A300340CA3003400E30034054
S11310806E300340CE3003401230034072300340D0
S1131090D23003401630034076300340D63003404C
S11310A01A3003407A300340DA3003401E300340E4
S11310B07E300340DE300340303003409030034044
S11310C0F03003405031034032300340923003404B
S11310D0F2300340523103402C3003408C30034043
S11310E0EC30034064300340C43003408C3103408F
S11310F08E310340903103408031034088310340F6
S113110000C00440FFF8FFFE04C0044008C00440CF
S11311100CC0044010C0044014C0044026300340F6
S1131120010040F10780F446404200F003F851F01A
S11311300041604709D0B0FA80F18840C91CC1F56C
S11311408461090501EBD021400570472DE9F04188
S113115040F2FF7581EA030C0CF0004C15EA1154BF
S11311601DBF15EA1357AC42AF42E9E0BC41C1F3DD
S11311701301C3F31303801A994143F4801304D277
S1131180641E4000494180185941C90241EA505146
S1131190B1FBF3F603FB1611A2FB0675D7EBC020D7
S11311A0A94102D2761E80185941C90241EA505120
S11311B0B1FBF3FE03FB1E11A2FB0E75D7EBC0209F
S11311C0A94103D2AEF1010E80185941890241EAC6
S11311D09051760546EA8E2EB1FBF3F603FB161109
S11311E0A2FB0675D7EB8020A94102D2761E801897
S11311F05941C90241EA50514EEA060EB1FBF3F6D9
S113120003FB1611A2FB0675D7EBC020A94102D23D
S1131210761E80185941C90241EA5051B1FBF3F7D7
S113122003FB1711A2FB0735D3EBC020A94167F1DB
S113123000070CBF004247F0010766F3D5274FEAC9
S11312401E31B80814F5806414DDBD0775F1004241
S113125050EB0E5051EB045111F5801F5CBF41EA75
S11312600C01BDE8F0814CF07F6141F0E0410020C9
S1131270BDE8F081BD076D0840EA0E5041F48011CD
S1131280D4F10104B4F120060ADAC4F12006020004
S1131290E04001FA06F3E1401843B24015430EE082
S11312A0342C14DCC6F1200445EA40056D0820FA0C
S11312B006F2154321FA06F0A1400D43002175F111
S11312C0004250F1000051EB0C01BDE8F081002018
S11312D05FEA0C01BDE8F081CFB992185B41B3FA23
S11312E083F704BFB2FA82F6BF190B3FB7F12006A9
S11312F02FBF02FA06F3BB40C7F1200622FA06F616
S113130038BF3343BA401CB1E419641E2FE77F424F
S113131031F00041B1FA81F404BFB0FA80F6A419A7
S11313200B3CB4F120062FBF00FA06F1A140C4F132
S1131330200620FA06F638BF3143A0403C1B16E7CE
S1131340AC421ABF05EA1357AF4214E050EA410613
S11313501CBF52EA4306BFE750EA410730466146E4
S11313601CBF41EA0551BDE8F08152EA430C08BFB5
S1131370C143BDE8F08100204FF4001616EB410F85
S113138098BF16EB430F08BF16EB410F24BFC143B0
S113139005E016EB430F0CBF61464CEA0551BDE86E
S11313A0F081FEE7B0B581EA030C0CF0004C40F28A
S11313B0FF7515EA11541DBF15EA1357AC42AF422D
S11313C039E0E41923EA455343F48013C90241F098
S11313D0004141EA505EC7021100A7FB0202002847
S11313E04FF00000EEFB01204FF00001E3FB07216A
S11313F018BF42F00102401800214941E3FB0E01ED
S1131400A4F580640F0302D252004041494154F1D3
S113141001046CDD470872F1004250F1000051EB09
S11314200451A1F580115CBF41EA0C01B0BD4CEA46
S113143005510020B0BD05EA1357AC4214BFAF42BA
S113144041E050EA410E1CBF52EA430E02E06146FD
S11314500020B0BD24423C441BD15FEA070EF6D005
S1131460090302BF01460020AEF1140EB1FA81F760
S1131470AEEB070401FA07FE0C37C7F1200100FAAE
S113148007F7C8404EEA000E23EA455343F480139D
S1131490A2E733F00043B3FA83F704BFB2FA82FE43
S11314A077440B3FE41BB7F1200E2FBF02FA0EF373
S11314B0BB40C7F1200E22FA0EFE38BF43EA0E03EA
S11314C0BA40641C82E750EA410E14BF52EA430E4C
S11314D06FF000014FF4001717EB430F8ABF194652
S11314E017EB410FB5E74CEA05510020B0BDD4F12C
S11314F00104B4F120070FDAC4F12007520828BF11
S113150042F0010210FA07F501FA07F7E1BF2A4396
S1131510E0403843E1400FE0352C98DCC7F120046B
S113152052EA400220FA07F218BF42F0010231FAEF
S113153007F0A1400A43002172F1004250F100007B
S113154051EB0C01B0BDFEE751EC100B53EC112B29
S113155010B500F003F841EC100B10BD70B540F26B
S1131560FF7601F0004C5B0006EA11545D0D1ABFD2
S1131570B442B54278E0B3EB410F08BF82424BD28C
S1131580C3F3530343F48013C1F3130141F48011F3
S1131590641B0B3C13D9C90241EA5051B1FBF3FE61
S11315A003FB1E11A2FB0EE6DEEBC020B14101D20B
S11315B08018594150EA010653D00B3CEBD80B3448
S11315C0C4F12006A14020FA06F6A0403143B1FB45
S11315D0F3FE03FB1E11A2FB0EE6B0EB0E00B141BD
S11315E001D28018594102BF0146203D0020C1B3F9
S11315F0B1FA81F39940C3F1200220FA02F21143B7
S11316009840ED1A0A3509DBC00A40EA41504CEA19
S1131610D12101EB055170BD23D070BDD5F10B056F
S1131620B5F120020DDAC5F120020300E84001FA09
S113163002F6E940934073F10043704151EB0C0111
S113164070BD402D0DDC430821FA02F0C2F12005E3
S113165011FA05F6334373F1004370415CF1000164
S113166070BD6146002070BD53EA020E1ABFB44239
S1131670B54237E0B3EB410F08BF8242CCD25B08DE
S1131680B3FA83F504BFB2FA82F6AD190B3DB5F196
S1131690200624BF02FA06F305E0AB40C5F120069C
S11316A022FA06F63343AA40D5F1010524427FF419
S11316B06BAF31F00041B1FA81F404BFB0FA80F6A7
S11316C0A4190B3CB4F1200624BF00FA06F105E08E
S11316D0A140C4F1200620FA06F63143A040D4F11B
S11316E0010455E74FF4001515EB410F2CBF6FF0C3
S11316F00041EB4218BF6FF00041BDE87040C0F0FC
S1131700B581704751EC100B10B500F003F841ECB3
S1131710100B10BD40F2FF7C1CEA115240F2FE3364
S1131720D21ACCBFD2F1350316E0B2F1150309DAAF
S11317306FEA4C53D340094201D5401E5941002061
S1131740994370476FF00002DA40094202D58018CD
S113175051F1000190437047352A09DA50EA4103F8
S11317601CBF4FEA0C5101F1804138BF0021002019
S11317707047FEE7F0B44FF0004591EA030C44BF14
S11317806B4000F09BB800BF841A71EB030603D2D0
S1131790001BB141121973414FF4001C1CEB410FA3
S11317A034BF7CEB430443E00C0DA4EB1356352EFD
S11317B050DC45EAC323DB0A45EAC121C912B6F16C
S11317C020050DDD63FA05F6EB4086EA03051242B7
S11317D018BF45F00105C01851F100010CD213E007
S11317E062FA06F5F2405540F3415A40B340F340E3
S11317F05A408018594107D349085FEA30005FEA2C
S1131800350528BF45F0010501F58011420875F141
S1131810004250F1000041EB0451F0BC4FF4001CB5
S11318201CEB410F38BF70470020090D09057047B4
S11318301CEB410F10D252EA43060BD0BCEB410F14
S113184005D80C0DAB43661E342EB5DD02E0AB4368
S113185080185941F0BC7047F0BC7047F446400D05
S113186040EAC120490006D200F00EF8004248BF09
S11318706FF00040604700F007F84FF000418842E5
S11318808CBF08464042604740F00040490DA1F536
S11318908061491C05D4D1F11F0154BFC840C01751
S11318A070474FF000007047F0B44FF0004591EAE4
S11318B0030F44BF6B40FFF767BF00BF841A71EB8F
S11318C0030604D26E40001BB141121973414FF458
S11318D0001C1CEB410F34BF7CEB430684E00C0D71
S11318E0A4EB1356362E7DDC012E43DC45EAC323DC
S11318F043EA525312BFD20292025B08240545EA1E
S1131900C12141EA5051D2EBC020994125D407D1DD
S1131910B0FA80F610FA06F164D00020203608E010
S1131920B1FA81F6B140C6F1200220FA02F2114365
S1131930B0404FEAF474B4EB465434F001064FEA75
S113194074040AD8D6F50016760D04F00044F0406D
S113195061FA06F25040F1404840C00A40EA415062
S113196021F0004128BF5FEA500550F1000044EB2C
S1131970D12137E045EAC323DB0A45EAC121C90A7C
S1131980B6F120050EDD42EA0242120CC5F1200632
S113199003FA06F6EB4042EA06056D42984161F10E
S11319A000010DE062FA06F5F240554063FA06FCC8
S11319B082EA0C02F3405A406D42904161EB03010C
S11319C011F4801F05D1641E620502D06D004041F0
S11319D0494121F48011430875F1004350F100009E
S11319E041EB0451F0BC70471CEB410F15D223F0BE
S11319F0004352EA43060BD04FEA4C0CBCEB410FB8
S1131A0004D80C0D661E342EB7DDEBE7801A99411D
S1131A1050EA410608BF0021E4E708BF1CEB430F6E
S1131A2028BF6FF00001DDE780B5002251EC100BF8
S1131A3000F022F841EC100B01BDFEE74FF4001C4E
S1131A401CEB410F94BF1CEB430F09E041EA030C6C
S1131A5050EA4C0C52EA0C0C03D2994208BF904253
S1131A60704714BF8B4282427047FEE71FB500F0F7
S1131A702BFA212101601FBDF8B52DED048B41EC3B
S1131A80180B154682B053EC182BDFF8A003DFF8CF
S1131A90A013FFF787FC41EC190B21F00041DFF89C
S1131AA09423DFF89433FFF7C9FF80F0F68051ECFC
S1131AB0190B0022002300F00DFA53EC192B99BFE7
S1131AC00020DFF878130020DFF87413FFF752FECC
S1131AD0FFF7C4FE040052D0FFF722FB0022DFF818
S1131AE06433FFF75FFC41EC190B53EC192B4FF0F7
S1131AF0A040D549FFF756FC02460B4651EC180BA3
S1131B00FFF7D2FE06460F4653EC192B4FF0C040A8
S1131B10CE49FFF747FC02460B4630463946FFF7ED
S1131B20C3FE06460F4653EC192B4FF00050C8492C
S1131B30FFF738FC02460B4630463946FFF7B4FE41
S1131B4006460F4653EC192B0020C249FFF72AFC26
S1131B5002460B4630463946FFF7A6FE06460F46B8
S1131B6053EC192B4FF00050BB49FFF71BFC024606
S1131B700B4630463946FFF797FE41EC180B04F04C
S1131B800300451951EC180B6FF00102B34B00F040
S1131B90A1F90BD800224FF07953FFF74FFF05D27C
S1131BA0E80740F134819FEDC68B30E153EC182BEC
S1131BB0FFF7F8FB41EC190BE80731D553EC192B6F
S1131BC0A748A849FFF7EEFBA74AA84BFFF7D2FDA9
S1131BD053EC192BFFF7E6FBA54AA64BFFF7CAFD0A
S1131BE053EC192BFFF7DEFBA34AA44BFFF7C2FD0E
S1131BF053EC192BFFF7D6FBA14AA24BFFF7BAFD12
S1131C0053EC192BFFF7CEFB6FF051029E4BFFF7FD
S1131C10B1FD53EC192BFFF7C5FB00229B4B37E0BA
S1131C2053EC182B51EC190BFFF7BCFB06460F467F
S1131C3053EC192B96489749FFF7B4FB964A974BF8
S1131C40FFF798FD53EC192BFFF7ACFB944A954B27
S1131C50FFF790FD53EC192BFFF7A4FB924A934B2B
S1131C60FFF788FD53EC192BFFF79CFB904A914B2F
S1131C70FFF780FD53EC192BFFF794FB8E4A8F4B33
S1131C80FFF778FD32463B46FFF78CFB53EC182BED
S1131C90FFF770FD41EC180BB9E08DED008BDDE929
S1131CA00001DDE90023C3F30A5140F2FF729142BF
S1131CB00BD0002904BF190350EA113016D1002DAE
S1131CC000F0AD809FED7E8BA9E0190350EA11303E
S1131CD040F0A58000F0F8F82121016002B04FF037
S1131CE0FF30BDEC048B6FF00041F4BD8DED008B33
S1131CF000A800F007F945199DED008B574B51ECF6
S1131D00180B6FF0010200F0E5F80AD800224FF03A
S1131D107953FFF793FE04D2E80778D59FED688BDB
S1131D2075E053EC182BFFF73DFB41EC190BE8076A
S1131D3031D553EC192B4A484A49FFF733FB4A4A39
S1131D404A4BFFF717FD53EC192BFFF72BFB484ABF
S1131D50484BFFF70FFD53EC192BFFF723FB464AC3
S1131D60464BFFF707FD53EC192BFFF71BFB444AC7
S1131D70444BFFF7FFFC53EC192BFFF713FB6FF0F9
S1131D805102414BFFF7F6FC53EC192BFFF70AFB0A
S1131D9000223E4B37E053EC182B51EC190BFFF7A4
S1131DA001FB06460F4653EC192B39483949FFF716
S1131DB0F9FA394A394BFFF7DDFC53EC192BFFF7DD
S1131DC0F1FA374A374BFFF7D5FC53EC192BFFF7E1
S1131DD0E9FA354A354BFFF7CDFC53EC192BFFF7E5
S1131DE0E1FA334A334BFFF7C5FC53EC192BFFF7E9
S1131DF0D9FA314A314BFFF7BDFC32463B46FFF777
S1131E00D1FA53EC182BFFF7B5FC41EC180BA807DB
S1131E1005D551EC180B81F0004141EC180B02B0D0
S1131E2051EC180BBDEC048BF4BD000083C8C96DE4
S1131E30305FE43F0000A0FFFFFFDF410000E03F10
S1131E400000E0BF0000303EFB21B941B410114056
S1131E5026A6513E5C14D33C9A833B3BFFFF3FBE16
S1131E6009260A1039BA213E3BA861C6F97D92BE03
S1131E7063AC30909F01FA3EF6FB51166CC156BF1D
S1131E80B10255555555A53FFFFFDFBF0000F03F98
S1131E90B08F2FC310D8E53D8F0C73A1E1E55ABE76
S1131EA04DADE44FE31DC73E3EE3B519A0012ABF83
S1131EB0FAF010111111813F425555555555C5BFC2
S1131EC0000000000000F03F014800F0CFB800001F
S1131ED000C0FF1F4FF4001C1CEB410F94BF1CEB10
S1131EE0430F09E041EA030C50EA4C0C52EA0C0C93
S1131EF003D28B4208BF8242704714BF994290427A
S1131F007047FEE7D0B52DED048B044682B094ED06
S1131F10008B4748474953EC182BFFF743FACDE9A8
S1131F20000100220023FFF7D5FFDDE9002399BF5C
S1131F300020414900204149FFF71CFCCDE9000184
S1131F40002100A800F093F8DDE90023002000211F
S1131F5000F0CCF84ED03A49FFF724FA41EC190BC3
S1131F6053EC192B4FF0A0403649FFF71BFA0246F9
S1131F700B4651EC180BFFF797FC06460F4653EC43
S1131F80192B4FF0C0403049FFF70CFA02460B46BC
S1131F9030463946FFF788FC06460F4653EC192BAA
S1131FA04FF000502949FFF7FDF902460B46304631
S1131FB03946FFF779FC06460F4653EC192B0020EF
S1131FC02349FFF7EFF902460B4630463946FFF73F
S1131FD06BFC06460F4653EC192B4FF000501D497D
S1131FE0FFF7E0F902460B4630463946FFF75CFC42
S1131FF041EC180B84ED008BDDE90001164A174B08
S1132000FFF71CFD04D3164A164BFFF763FF05D8F0
S11320100022154BFFF7A2FACDE90001DDE900012A
S1132020FFF71CFC02B000F00300BDEC048BD0BD34
S113203083C8C96D305FE43F0000E03F0000E0BFAB
S11320400000303EFB21B941B410114026A6513E98
S11320505C14D33C9A833B3B0000C0FFFFFFDFC10D
S11320600100C0FFFFFFDF410000E041704742680C
S1132070C2F30A5240F2FF739A4209D1416809033C
S113208004BF0068002801D1012070470220704776
S113209043685B0004BF0368002B25D040F2334340
S11320A09A1A521A012A1FDB352A06DB416801F00D
S11320B0004141600021016013E0012102F01F038F
S11320C09940491E920607D5426811404A40426031
S11320D002681143002202E0026811404A40026093
S11320E011B14FF0FF3070470020704790420CD17F
S11320F041EA030C50EA4C0C07D0994205D14FF445
S1132100001C1CEB410F38BF894270474B480068E4
S113211050F47000494908604CF220504849088046
S11321204DF62810464908804FF4E9704549088067
S113213045480078C00709D544480078000705D50C
S11321404248007850F0080040490870A2204049F5
S1132150087060203F4908703F480078C0B280286A
S1132160FAD13E483E4908603E48006850F4402099
S11321703C4908603C480068400040083A4908600F
S11321803A48006850F400703849086038480068DC
S1132190384908403649086037480078400705D573
S11321A036480068334908403449086000203449FF
S11321B0087031480078C0B210F0BF0050F024001D
S11321C02D49087080202F4908709A202E490870E4
S11321D02E4800788007FBD52C480078C006FBD435
S11321E02B48007810F01F00294908700020294965
S11321F008701520284908700020284908702348D1
S11322000078C0B210F00C000828F8D122480078F9
S113221050F04000204908701C4800784006FBD567
S11322201948007810F03F001749087017480078E3
S1132230C0B210F00C000C28F8D1704788ED00E013
S11322400E2005400020054000F0074002D0074062
S113225000E0074001E0074003E0074000000501FB
S113226044800440007004400480044038800440EA
S113227048900440FFF8FFFE014006404C900440A3
S11322800840064000500640004006400640064014
S11322900340064004400640054006400250064004
S11322A002684EF6A133C6F6D96333FB02F34FEA54
S11322B0E3334FEA2242C3F10000B0EB62002BDCAF
S11322C0B3EB620314DD002A66DD00F5004002EB87
S11322D060021344A0F34F0082F30F0283F30F0351
S11322E021F8023B21F8022B08804FF001007047CF
S11322F0C2F500424FEA6202A2EB0000A0EB030326
S113230080F30F0083F30F0321F8020B21F8023B43
S11323100A804FF002007047B3EB62032ADC002A04
S113232012DD03F5004300EB63000244A3F34F0303
S113233080F30F0082F30F0221F8023B21F8022BF5
S113234008804FF003007047C0F500404FEA60007A
S1132350A0EB0303A3EB020280F30F0083F30F034C
S113236082F30F0221F8020B21F8023B0A804FF09E
S11323700400704702F500424FEA62021344184415
S113238083F30F0380F30F0021F8023B21F8022BA3
S113239008804FF005007047C3F500434FEA63031C
S11323A0A3EB0202A2EB000083F30F0382F30F02FC
S11323B080F30F0021F8020B21F8023B0A804FF052
S11323C0060070470C490D4A914211D000210800C3
S11323D00B49B0EB910F07D2084951F82010064A77
S11323E042F82010401CF3E70349064A116002E05A
S11323F00249044A11607047000000000000000018
S11324000000000008ED00E019E050F8041BCB07C1
S113241044BFA9F101035918121F0023042A41F8EB
S1132420043BF9D25FEA827C0B4604D54FF0000CE2
S1132430A1F800C09B1CD10744BF0021197050F8BB
S1132440042B002AE1D1704710B450F8041B79B171
S11324500268436812180830DC0744BFA9F101047C
S1132460E31852F8044B43F8044B091FF9D1ECE785
S113247010BC704710B5074979441831064C7C44A8
S1132480163404E00A68081D511888470146A14221
S1132490F8D110BD2C0000004C0000004EF688510D
S11324A0CEF20001086840F470000860BFF34F8F5B
S11324B0BFF36F8F4FF00070E1EE100A7047000019
S11324C049FFFFFF3400000008C0FF1F00000000A8
S11324D079FFFFFF040000008000000000C0FF1F20
S11324E000000000FEE7000072B60348804703487E
S11324F0804762B6024800470D210000C523000052
S11325004925000000F00BF8002801D0FFF7B2FFC6
S11325100020C046C046FDF77BFF00F002F8012012
S1132520704700F001B8FEE70746384600F002F8AD
S1132530FBE7FEE780B5C046C046024A11001820FA
S1132540ABBEFBE726000200C046C046FFF7A6FF6D
S10F2550FFF7D8FFFFF7FEBF00000000FB
S90324E9EF
